{
  "contractName": "Contest",
  "abi": [
    {
      "inputs": [],
      "stateMutability": "nonpayable",
      "type": "constructor"
    },
    {
      "inputs": [
        {
          "internalType": "uint256",
          "name": "",
          "type": "uint256"
        }
      ],
      "name": "contestants",
      "outputs": [
        {
          "internalType": "uint256",
          "name": "id",
          "type": "uint256"
        },
        {
          "internalType": "string",
          "name": "name",
          "type": "string"
        },
        {
          "internalType": "uint256",
          "name": "voteCount",
          "type": "uint256"
        },
        {
          "internalType": "string",
          "name": "party",
          "type": "string"
        },
        {
          "internalType": "uint256",
          "name": "age",
          "type": "uint256"
        },
        {
          "internalType": "string",
          "name": "qualification",
          "type": "string"
        }
      ],
      "stateMutability": "view",
      "type": "function",
      "constant": true
    },
    {
      "inputs": [],
      "name": "contestantsCount",
      "outputs": [
        {
          "internalType": "uint256",
          "name": "",
          "type": "uint256"
        }
      ],
      "stateMutability": "view",
      "type": "function",
      "constant": true
    },
    {
      "inputs": [],
      "name": "state",
      "outputs": [
        {
          "internalType": "enum Contest.PHASE",
          "name": "",
          "type": "uint8"
        }
      ],
      "stateMutability": "view",
      "type": "function",
      "constant": true
    },
    {
      "inputs": [
        {
          "internalType": "address",
          "name": "",
          "type": "address"
        }
      ],
      "name": "voters",
      "outputs": [
        {
          "internalType": "bool",
          "name": "hasVoted",
          "type": "bool"
        },
        {
          "internalType": "uint256",
          "name": "vote",
          "type": "uint256"
        },
        {
          "internalType": "bool",
          "name": "isRegistered",
          "type": "bool"
        }
      ],
      "stateMutability": "view",
      "type": "function",
      "constant": true
    },
    {
      "inputs": [
        {
          "internalType": "enum Contest.PHASE",
          "name": "x",
          "type": "uint8"
        }
      ],
      "name": "changeState",
      "outputs": [],
      "stateMutability": "nonpayable",
      "type": "function"
    },
    {
      "inputs": [
        {
          "internalType": "string",
          "name": "_name",
          "type": "string"
        },
        {
          "internalType": "string",
          "name": "_party",
          "type": "string"
        },
        {
          "internalType": "uint256",
          "name": "_age",
          "type": "uint256"
        },
        {
          "internalType": "string",
          "name": "_qualification",
          "type": "string"
        }
      ],
      "name": "addContestant",
      "outputs": [],
      "stateMutability": "nonpayable",
      "type": "function"
    },
    {
      "inputs": [
        {
          "internalType": "address",
          "name": "user",
          "type": "address"
        }
      ],
      "name": "voterRegisteration",
      "outputs": [],
      "stateMutability": "nonpayable",
      "type": "function"
    },
    {
      "inputs": [
        {
          "internalType": "uint256",
          "name": "_contestantId",
          "type": "uint256"
        }
      ],
      "name": "vote",
      "outputs": [],
      "stateMutability": "nonpayable",
      "type": "function"
    }
  ],
  "bytecode": "0x608060405234801561000f575f80fd5b50335f806101000a81548173ffffffffffffffffffffffffffffffffffffffff021916908373ffffffffffffffffffffffffffffffffffffffff1602179055505f60045f6101000a81548160ff021916908360028111156100735761007261007d565b5b02179055506100aa565b7f4e487b71000000000000000000000000000000000000000000000000000000005f52602160045260245ffd5b611126806100b75f395ff3fe608060405234801561000f575f80fd5b5060043610610086575f3560e01c8063c19d93fb11610059578063c19d93fb14610110578063dfd50f521461012e578063ec63d1c814610163578063ef3281861461018157610086565b80630121b93f1461008a578063268f1153146100a6578063698ceb5f146100c2578063a3ec138d146100de575b5f80fd5b6100a4600480360381019061009f91906108d0565b61019d565b005b6100c060048036038101906100bb919061091e565b610368565b005b6100dc60048036038101906100d791906109a3565b610427565b005b6100f860048036038101906100f391906109a3565b610517565b604051610107939291906109f7565b60405180910390f35b610118610555565b6040516101259190610a9f565b60405180910390f35b610148600480360381019061014391906108d0565b610567565b60405161015a96959493929190610b42565b60405180910390f35b61016b610731565b6040516101789190610bb6565b60405180910390f35b61019b60048036038101906101969190610cfb565b610737565b005b60018060028111156101b2576101b1610a2c565b5b60045f9054906101000a900460ff1660028111156101d3576101d2610a2c565b5b146101dc575f80fd5b60025f3373ffffffffffffffffffffffffffffffffffffffff1673ffffffffffffffffffffffffffffffffffffffff1681526020019081526020015f206002015f9054906101000a900460ff16610231575f80fd5b60025f3373ffffffffffffffffffffffffffffffffffffffff1673ffffffffffffffffffffffffffffffffffffffff1681526020019081526020015f205f015f9054906101000a900460ff1615610286575f80fd5b5f8211801561029757506003548211155b61029f575f80fd5b60015f8381526020019081526020015f206002015f8154809291906102c390610de0565b9190505550600160025f3373ffffffffffffffffffffffffffffffffffffffff1673ffffffffffffffffffffffffffffffffffffffff1681526020019081526020015f205f015f6101000a81548160ff0219169083151502179055508160025f3373ffffffffffffffffffffffffffffffffffffffff1673ffffffffffffffffffffffffffffffffffffffff1681526020019081526020015f20600101819055505050565b5f8054906101000a900473ffffffffffffffffffffffffffffffffffffffff1673ffffffffffffffffffffffffffffffffffffffff163373ffffffffffffffffffffffffffffffffffffffff16146103be575f80fd5b60045f9054906101000a900460ff1660028111156103df576103de610a2c565b5b8160028111156103f2576103f1610a2c565b5b116103fb575f80fd5b8060045f6101000a81548160ff0219169083600281111561041f5761041e610a2c565b5b021790555050565b5f8054906101000a900473ffffffffffffffffffffffffffffffffffffffff1673ffffffffffffffffffffffffffffffffffffffff163373ffffffffffffffffffffffffffffffffffffffff161461047d575f80fd5b5f80600281111561049157610490610a2c565b5b60045f9054906101000a900460ff1660028111156104b2576104b1610a2c565b5b146104bb575f80fd5b600160025f8473ffffffffffffffffffffffffffffffffffffffff1673ffffffffffffffffffffffffffffffffffffffff1681526020019081526020015f206002015f6101000a81548160ff0219169083151502179055505050565b6002602052805f5260405f205f91509050805f015f9054906101000a900460ff1690806001015490806002015f9054906101000a900460ff16905083565b60045f9054906101000a900460ff1681565b6001602052805f5260405f205f91509050805f01549080600101805461058c90610e54565b80601f01602080910402602001604051908101604052809291908181526020018280546105b890610e54565b80156106035780601f106105da57610100808354040283529160200191610603565b820191905f5260205f20905b8154815290600101906020018083116105e657829003601f168201915b50505050509080600201549080600301805461061e90610e54565b80601f016020809104026020016040519081016040528092919081815260200182805461064a90610e54565b80156106955780601f1061066c57610100808354040283529160200191610695565b820191905f5260205f20905b81548152906001019060200180831161067857829003601f168201915b5050505050908060040154908060050180546106b090610e54565b80601f01602080910402602001604051908101604052809291908181526020018280546106dc90610e54565b80156107275780601f106106fe57610100808354040283529160200191610727565b820191905f5260205f20905b81548152906001019060200180831161070a57829003601f168201915b5050505050905086565b60035481565b5f8054906101000a900473ffffffffffffffffffffffffffffffffffffffff1673ffffffffffffffffffffffffffffffffffffffff163373ffffffffffffffffffffffffffffffffffffffff161461078d575f80fd5b5f8060028111156107a1576107a0610a2c565b5b60045f9054906101000a900460ff1660028111156107c2576107c1610a2c565b5b146107cb575f80fd5b60035f8154809291906107dd90610de0565b91905055506040518060c0016040528060035481526020018681526020015f81526020018581526020018481526020018381525060015f60035481526020019081526020015f205f820151815f015560208201518160010190816108419190611021565b506040820151816002015560608201518160030190816108619190611021565b506080820151816004015560a08201518160050190816108819190611021565b509050505050505050565b5f604051905090565b5f80fd5b5f80fd5b5f819050919050565b6108af8161089d565b81146108b9575f80fd5b50565b5f813590506108ca816108a6565b92915050565b5f602082840312156108e5576108e4610895565b5b5f6108f2848285016108bc565b91505092915050565b60038110610907575f80fd5b50565b5f81359050610918816108fb565b92915050565b5f6020828403121561093357610932610895565b5b5f6109408482850161090a565b91505092915050565b5f73ffffffffffffffffffffffffffffffffffffffff82169050919050565b5f61097282610949565b9050919050565b61098281610968565b811461098c575f80fd5b50565b5f8135905061099d81610979565b92915050565b5f602082840312156109b8576109b7610895565b5b5f6109c58482850161098f565b91505092915050565b5f8115159050919050565b6109e2816109ce565b82525050565b6109f18161089d565b82525050565b5f606082019050610a0a5f8301866109d9565b610a1760208301856109e8565b610a2460408301846109d9565b949350505050565b7f4e487b71000000000000000000000000000000000000000000000000000000005f52602160045260245ffd5b60038110610a6a57610a69610a2c565b5b50565b5f819050610a7a82610a59565b919050565b5f610a8982610a6d565b9050919050565b610a9981610a7f565b82525050565b5f602082019050610ab25f830184610a90565b92915050565b5f81519050919050565b5f82825260208201905092915050565b5f5b83811015610aef578082015181840152602081019050610ad4565b5f8484015250505050565b5f601f19601f8301169050919050565b5f610b1482610ab8565b610b1e8185610ac2565b9350610b2e818560208601610ad2565b610b3781610afa565b840191505092915050565b5f60c082019050610b555f8301896109e8565b8181036020830152610b678188610b0a565b9050610b7660408301876109e8565b8181036060830152610b888186610b0a565b9050610b9760808301856109e8565b81810360a0830152610ba98184610b0a565b9050979650505050505050565b5f602082019050610bc95f8301846109e8565b92915050565b5f80fd5b5f80fd5b7f4e487b71000000000000000000000000000000000000000000000000000000005f52604160045260245ffd5b610c0d82610afa565b810181811067ffffffffffffffff82111715610c2c57610c2b610bd7565b5b80604052505050565b5f610c3e61088c565b9050610c4a8282610c04565b919050565b5f67ffffffffffffffff821115610c6957610c68610bd7565b5b610c7282610afa565b9050602081019050919050565b828183375f83830152505050565b5f610c9f610c9a84610c4f565b610c35565b905082815260208101848484011115610cbb57610cba610bd3565b5b610cc6848285610c7f565b509392505050565b5f82601f830112610ce257610ce1610bcf565b5b8135610cf2848260208601610c8d565b91505092915050565b5f805f8060808587031215610d1357610d12610895565b5b5f85013567ffffffffffffffff811115610d3057610d2f610899565b5b610d3c87828801610cce565b945050602085013567ffffffffffffffff811115610d5d57610d5c610899565b5b610d6987828801610cce565b9350506040610d7a878288016108bc565b925050606085013567ffffffffffffffff811115610d9b57610d9a610899565b5b610da787828801610cce565b91505092959194509250565b7f4e487b71000000000000000000000000000000000000000000000000000000005f52601160045260245ffd5b5f610dea8261089d565b91507fffffffffffffffffffffffffffffffffffffffffffffffffffffffffffffffff8203610e1c57610e1b610db3565b5b600182019050919050565b7f4e487b71000000000000000000000000000000000000000000000000000000005f52602260045260245ffd5b5f6002820490506001821680610e6b57607f821691505b602082108103610e7e57610e7d610e27565b5b50919050565b5f819050815f5260205f209050919050565b5f6020601f8301049050919050565b5f82821b905092915050565b5f60088302610ee07fffffffffffffffffffffffffffffffffffffffffffffffffffffffffffffffff82610ea5565b610eea8683610ea5565b95508019841693508086168417925050509392505050565b5f819050919050565b5f610f25610f20610f1b8461089d565b610f02565b61089d565b9050919050565b5f819050919050565b610f3e83610f0b565b610f52610f4a82610f2c565b848454610eb1565b825550505050565b5f90565b610f66610f5a565b610f71818484610f35565b505050565b5b81811015610f9457610f895f82610f5e565b600181019050610f77565b5050565b601f821115610fd957610faa81610e84565b610fb384610e96565b81016020851015610fc2578190505b610fd6610fce85610e96565b830182610f76565b50505b505050565b5f82821c905092915050565b5f610ff95f1984600802610fde565b1980831691505092915050565b5f6110118383610fea565b9150826002028217905092915050565b61102a82610ab8565b67ffffffffffffffff81111561104357611042610bd7565b5b61104d8254610e54565b611058828285610f98565b5f60209050601f831160018114611089575f8415611077578287015190505b6110818582611006565b8655506110e8565b601f19841661109786610e84565b5f5b828110156110be57848901518255600182019150602085019450602081019050611099565b868310156110db57848901516110d7601f891682610fea565b8355505b6001600288020188555050505b50505050505056fea26469706673582212207f4b8d0cb04c17703bb7f07f884d2e48a4ef1d7f6a9134588d5b32585f221a4c64736f6c63430008140033",
  "immutableReferences": {},
  "source": "// SPDX-License-Identifier: MIT\npragma solidity ^0.8.19;\n\ncontract Contest {\n    struct Contestant {\n        uint id;\n        string name;\n        uint voteCount;\n        string party;\n        uint age;\n        string qualification;\n    }\n\n    struct Voter {\n        bool hasVoted;\n        uint vote;\n        bool isRegistered;\n    }\n\n    address admin;\n    mapping(uint => Contestant) public contestants;\n    // mapping(address => bool) public voters;\n    mapping(address => Voter) public voters;\n    uint public contestantsCount;\n    // uint public counter;\n    enum PHASE {\n        reg,\n        voting,\n        done\n    }\n    PHASE public state;\n\n    modifier onlyAdmin() {\n        require(msg.sender == admin);\n        _;\n    }\n\n    modifier validState(PHASE x) {\n        require(state == x);\n        _;\n    }\n\n    constructor() public {\n        admin = msg.sender;\n        state = PHASE.reg;\n        //counter = 0;\n    }\n\n    function changeState(PHASE x) public onlyAdmin {\n        require(x > state);\n        state = x;\n    }\n\n    function addContestant(\n        string memory _name,\n        string memory _party,\n        uint _age,\n        string memory _qualification\n    ) public onlyAdmin validState(PHASE.reg) {\n        contestantsCount++;\n        contestants[contestantsCount] = Contestant(\n            contestantsCount,\n            _name,\n            0,\n            _party,\n            _age,\n            _qualification\n        );\n    }\n\n    function voterRegisteration(\n        address user\n    ) public onlyAdmin validState(PHASE.reg) {\n        voters[user].isRegistered = true;\n    }\n\n    function vote(uint _contestantId) public validState(PHASE.voting) {\n        require(voters[msg.sender].isRegistered);\n        require(!voters[msg.sender].hasVoted);\n        require(_contestantId > 0 && _contestantId <= contestantsCount);\n        contestants[_contestantId].voteCount++;\n        voters[msg.sender].hasVoted = true;\n        voters[msg.sender].vote = _contestantId;\n    }\n}\n",
  "sourcePath": "F:\\Code\\blockchain\\blockchain-election\\contracts\\Contest.sol",
  "compiler": {
    "name": "solc",
    "version": "0.8.20+commit.a1b79de6.Emscripten.clang"
  },
  "schemaVersion": "3.4.13",
  "updatedAt": "2023-05-18T08:25:20.719Z",
  "networkType": "ethereum",
  "devdoc": {
    "kind": "dev",
    "methods": {},
    "version": 1
  },
  "userdoc": {
    "kind": "user",
    "methods": {},
    "version": 1
  }
}